:020000040800F2
:10000000000003208D050008B11D0008B31D000885
:10001000B51D0008B71D0008B91D0008000000004C
:10002000000000000000000000000000315A00083D
:10003000BB1D000800000000C15A00084953000819
:10004000DD050008DD050008DD050008DD05000808
:10005000DD050008DD050008DD050008DD050008F8
:10006000DD050008DD050008DD050008DD050008E8
:10007000DD050008DD050008DD050008DD050008D8
:10008000DD050008DD050008DD050008DD050008C8
:10009000DD050008DD050008DD050008DD050008B8
:1000A000DD050008DD050008DD050008DD050008A8
:1000B000DD050008DD050008DD050008DD05000898
:1000C000DD050008DD050008DD050008DD05000888
:1000D000DD050008DD050008DD050008DD05000878
:1000E000DD050008DD050008DD050008DD05000868
:1000F000DD050008DD050008DD050008DD05000858
:10010000DD050008DD050008DD050008DD05000847
:10011000DD050008DD050008BD1D0008DD0500083F
:10012000DD050008DD050008DD050008DD05000827
:10013000DD050008DD050008DD050008DD05000817
:10014000DD050008DD050008DD050008DD05000807
:10015000DD050008DD050008DD050008DD050008F7
:10016000DD050008DD050008DD050008DD050008E7
:10017000DD050008DD050008DD05000800000000C1
:10018000DD050008DD050008DD050008DD050008C7
:10019000DD050008DD050008DD050008DD050008B7
:0C01A000C91D0008DD050008D51D000881
:1001B00010B5054C237833B9044B13B10448AFF3A1
:1001C00000800123237010BD6401002000000000A6
:1001D00078AD010808B5034B1BB103490348AFF3E1
:1001E000008008BD000000006801002078AD010813
:1001F00001F0FF01102A2BDB10F0070F08D010F8D8
:10020000013B013A8B422DD010F0070F42B3F6D1DB
:10021000F0B441EA012141EA014122F007047FF0F4
:1002200000070023F0E80256083C85EA010586EA4B
:10023000010685FA47F5A3FA87F586FA47F6A5FA87
:1002400087F68EB9EED1F0BC01F0FF0102F0070293
:1002500032B110F8013B013A83EA010313B1F8D13E
:100260000020704701387047002D06BF354603381F
:10027000073815F0010F07D1013015F4807F02BF58
:10028000013015F4C03F0130F0BC0138704700BFA9
:1002900053B94AB9002908BF00281CBF4FF0FF31ED
:1002A0004FF0FF3000F070B9ADF1080C6DE904CEED
:1002B00000F006F8DDF804E0DDE9022304B0704741
:1002C0002DE9F047089E0D4604460F46002B4AD103
:1002D0008A42944665D9B2FA82F343B102FA03FC2A
:1002E000C3F120029F4020FA02F217439C404FEADC
:1002F0001C4E1FFA8CF5B7FBFEF1220C0EFB11779A
:1003000042EA074201FB05F090420AD91CEB0202C7
:1003100001F1FF3780F01C81904240F219810239CF
:100320006244121AA4B2B2FBFEF00EFB102244EAA1
:10033000024400FB05F5A5420AD91CEB040400F1B8
:10034000FF3280F00781A54240F204816444023804
:1003500040EA0140641B00211EB1DC400023C6E9D5
:100360000043BDE8F0878B4208D9002E00F0ED80F5
:100370000021C6E900050846BDE8F087B3FA83F11D
:10038000002949D1AB4202D3824200F2F880841A9C
:1003900065EB030201201746002EE2D0C6E90047B4
:1003A000DFE702B9FFDEB2FA82F3002B40F0908063
:1003B0008A1A4FEA1C471FFA8CFE0121B2FBF7F59F
:1003C00007FB1520220C42EA00420EFB05F090428A
:1003D00008D91CEB020205F1FF3802D2904200F26C
:1003E000CB804546121AA4B2B2FBF7F007FB1022ED
:1003F00044EA02440EFB00FEA64508D91CEB0404A7
:1004000000F1FF3202D2A64500F2BB801046A4EBF9
:100410000E0440EA05409FE7C1F120078B4022FA15
:1004200007FC4CEA030C05FA01F420FA07F3FD403F
:100430004FEA1C492343B5FBF9F81FFA8CFE09FB70
:1004400018551C0C44EA054408FB0EF5A54202FAB7
:1004500001F200FA01F00BD91CEB040408F1FF3A99
:1004600080F08880A54240F28580A8F102086444AB
:10047000641B9DB2B4FBF9F309FB134445EA044441
:1004800003FB0EFEA64508D91CEB040403F1FF355F
:100490006CD2A6456AD9023B644443EA0843A3FBF5
:1004A0000295A4EB0E04AC42C846AE4656D353D0D8
:1004B00056B1B0EB080264EB0E0404FA07F7CA4029
:1004C000CC401743C6E9007418460021BDE8F08708
:1004D000C3F1200102FA03FC20FA01F225FA01F12E
:1004E0009D402A434FEA1C471FFA8CFEB1FBF7F0F0
:1004F00007FB1015110C41EA054100FB0EF58D427A
:1005000004FA03F408D91CEB010100F1FF382FD2E3
:100510008D422DD902386144491B92B2B1FBF7F5E7
:1005200007FB151142EA014205FB0EF1914208D981
:100530001CEB020205F1FF3816D2914214D9023D9C
:100540006244521A45EA004138E73146304608E72E
:100550003946E6E61046FBE64845A9D2B9EB020863
:1005600065EB0C0E013BA3E74546EAE72B4694E713
:100570004046D1E7D0467BE7023D624432E7084679
:100580000AE76444023842E7704700BFDFF834D01E
:10059000002103E00C4B5B58435004310B480C4BDB
:1005A00042189A42F6D30B4A02E0002342F8043B79
:1005B000094B9A42F9D302F0B9FC19F061FE00F040
:1005C000DFFE70470000032010DF0208000000205B
:1005D00064010020640100206C300120FEE77047B8
:1005E00008B500F01FFDBDE8084000F0ABBC00F00E
:1005F0001BBD704710B50421044619F065FB204669
:1006000010BD000038B50C4B0C4C18800C4B8220F0
:1006100019806368984740F6110398420AD1094D42
:1006200023682C60822098472B688220DB689847DB
:10063000002038BD0120FCE7800100204C00002094
:1006400082010020840100204FF4A071F020FFF708
:10065000D9BF0000F7B52D4D2B6804461B698220D9
:10066000984780B22080002843D02B680DF1060205
:100670005B6901A982209847BDF80620A2F5B472F3
:1006800092B20A2A37D90B23B2FBF3F2204B1B8814
:100690009A4201D9013B9AB2BDF8043040F6B83114
:1006A0008B422AD8C3F571630E339BB20F21B3FB83
:1006B000F1F3184909888B4201D901398BB2164EE2
:1006C000164D30682F68834281B28CBF591AC91AFF
:1006D000B8B2BA428CBF101A801A89B280B20144F3
:1006E0000529C8BF33603368C8BF2A6063802B68A0
:1006F000A38003B0F0BD0022CEE7C3F56D630833DD
:100700009BB20E2BD2D80023D9E700BF8401002072
:100710008201002080010020880100208C0100203F
:1007200037B568460D461446FFF794FFBDF8000044
:1007300030B1BDF802302B60BDF8043023600120D9
:1007400003B030BD032821D8DFE800F0020B1219F6
:100750000F4B1A68B2FA82F2520904210D4802F0D6
:100760007DBE0B4B5A68B2FA82F252090821F5E7B6
:10077000074B9A68B2FA82F252091021EEE7044B55
:10078000DA68B2FA82F252092021E7E7704700BF27
:100790009001002000100240032821D8DFE800F07B
:1007A000020B12190F4B1A68003A18BF01220421DC
:1007B0000D4802F053BE0B4B5A68003A18BF012295
:1007C0000821F5E7074B9A68003A18BF012210216B
:1007D000EEE7044BDA68003A18BF01222021E7E770
:1007E000704700BF900100200010024003280DD880
:1007F000DFE800F00206080A0421054802F033BED3
:100800000821FAE71021F8E72021F6E7704700BF3A
:100810000010024008B5032811D8DFE800F0020AF2
:100820000C0E0421074802F013FE431E58425841A3
:1008300008BD0821F6E71021F4E72021F2E70020A7
:10084000F3E700BF0010024070B5084D00240126F8
:10085000E0B2FFF7DFFF18B12B68012B18BF2E6045
:100860000134052C05F10405F2D170BD9001002082
:10087000012380F8781080F87930704700207047A5
:10088000034B4164003918BF01211970704700BF44
:100890003B24012000207047836B0BB108461847AA
:1008A00070474FF6FF707047406803689B691847B0
:1008B000704770477047000010B5044600F082FC96
:1008C00023680349D3F88C302046BDE81040184710
:1008D000000000D008B503680446D3F8803098477C
:1008E000236820469B6F984700F0ECF82368204669
:1008F0001B6F9847292000F07BFF00F0E3F8236886
:1009000020461B6F9847F8E710B5044607F074FEC1
:1009100023682046D3F8AC30BDE81040184700F0FB
:1009200043BC00F047BC00F06BBC00F019BC00F009
:1009300073BC00F07BBC00F01DBC07F0C9B810B55B
:100940007C21044619F0C0F9204610BD90F87A3099
:100950001BB1406803681B681847184670470000C1
:1009600010B590F8341090F878400C4B8C421A78FF
:1009700009D03AB90A4A0B491488088810800C80BB
:1009800001221A7010BD002AFCD0054A05491488BE
:10099000088810800C800022F3E700BF3424012077
:1009A000302401203224012070B50D46194635B996
:1009B000094B0A4A0A4840F2D22119F0B3F9C0E9BA
:1009C0000F52084B003A18BF01221A700368BDE8A5
:1009D0007040D3F88C301847E8AD010820AE01080C
:1009E0006EAE01083A24012008B5094B1B888B42E2
:1009F00003D8084B1B88934205D9074B074A084880
:100A00009E2119F08FF9074B1980074B1A8008BDFA
:100A10003024012032240120B3AE010816AF0108B2
:100A20006EAE01083624012038240120012108B5CA
:100A30000022084604F015FD0A4B186028B90A4B3D
:100A40000A4A28210A4819F06DF9002204210120E0
:100A500004F0A4FD074B186018B9074B034A2C217A
:100A6000F0E708BDA401002034B001087DB0010802
:100A7000ACB00108A0010020EDB00108024B4FF01E
:100A8000FF31186804F037BDA4010020014B18683D
:100A900004F05CBDA4010020024B0021186804F0A2
:100AA0002ABD00BFA4010020FFF7F0BF034804499E
:100AB000006800231A4604F0ACBD00BFA00100206E
:100AC0000400002013B5084C00231A4601A9206831
:100AD00004F0CFFD20684FF0FF33002201A904F09D
:100AE000C8FD02B010BD00BFA001002003685B6C10
:100AF00018470120704703689B6A184782B000239B
:100B000001930D4B1A6B42F400021A631A6B02F444
:100B100000020192019A1A6942F400021A611A69EC
:100B200022F400021A61054B054A1A61054B4FF089
:100B300080629A6002B070470038024010140020B2
:100B4000890B000800E100E040F2EF307047000040
:100B5000054B0360054B4FF08062C3F88820BFF35C
:100B60004F8FBFF36F8F704780B2010800E100E044
:100B700010B504464FF45A61FFF7EAFF204619F01A
:100B8000A3F8204610BD0000024B1B68586803689C
:100B90005B6918473C24012070B5044625460A4B82
:100BA0000C30002660602672667245F8203B602299
:100BB000294607F05FFE04F55A63EE602435AB4228
:100BC000FBD1204670BD00BF80B2010808B50B29DB
:100BD0000BD8DFE801F01206100A0A0A0A08080812
:100BE0000808012008BD0520FCE7054B054A06481A
:100BF000652119F097F80020F4E70220F2E700BF22
:100C00002FB101084AB1010894B1010808B50A29B9
:100C100009D8DFE801F010060E08080808060606E5
:100C20000600012008BD054B054A0648862119F03B
:100C300079F80020F6E70220F4E700BF2FB10108A1
:100C4000D3B1010894B101082DE9F84391F81D8052
:100C50000C4641460746FFF7B9FF94F81E9005463B
:100C600049463846FFF7B2FF494606463846FFF781
:100C7000CDFFA18A628B434B521A1A649A61228B70
:100C8000521A1A61E28A586342EA01425A642069A0
:100C90006268D863DA602768802F28D0227F0FD857
:100CA000202F65D0402F63D0042F1AD0354B45EA52
:100CB000026545F40035C845DD615FD0324A44E045
:100CC000B7F5807F04D0B7F5007FEFD12F4900E062
:100CD0002F4941EA0262DA61E2681A625E62586193
:100CE00032E045EA026242F40032DA61F6E7A768D0
:100CF0003A1DDA62217F3A7845EA016545F400350C
:100D0000DD615E62586142B1012A21D0214B224A45
:100D100022484FF4887119F005F8DA69798822F4CD
:100D20007F42013922F0100242EA0122DA610121F8
:100D3000144BDA6942F02002DA61DA699206FCD4D7
:100D400010229A600029B9D0154A1A60BDE8F883CC
:100D5000DA69788822F47F42013822F0100242EAF0
:100D60000022FF3942F0100218BF0121DA61DFE7EB
:100D700045EA0262034B42F40032B6E740F2012238
:100D8000E3E700BF00B002400102010009000200D9
:100D90000A0002001EB2010838B2010894B101082D
:100DA0000102020038B50C46897FFFF72FFFA58AA4
:100DB000E28A164B2169586342EA05425A64628B03
:100DC000D963521B1A642568082D0ED19A611A61E5
:100DD0005862207F0E4A42EA0062DA61E2681A62D3
:100DE0000C4A5961D9601A6038BD0022D8611A6175
:100DF000E1680A0A480902F4784200F4FC60024300
:100E0000C1F3C4010A439A63034AECE700B002400D
:100E100009000100010202000102030001207047E5
:100E20000C2070470C2303FB0100083070470C2393
:100E300003FB010008307047012070474FF4FE703B
:100E400070474FF4FE7303FB0100083070474FF406
:100E5000FE7303FB0100083070470120704710202B
:100E6000704700EB01100830704700EB01100830AC
:100E70007047084601F096B910B5034B036004466D
:100E800006F07BFB204610BD38B3010810B50446C0
:100E9000FFF7F2FF2046142118F016FF204610BD80
:100EA00010B5034B0360044606F067FB204610BDF7
:100EB00004B3010810B50446FFF7F2FF20464FF4D3
:100EC000017118F001FF204610BD000010B5034B62
:100ED0000360044606F051FB204610BDD0B2010865
:100EE00010B50446FFF7F2FF2046182118F0ECFE7B
:100EF000204610BD10B5084B0360044600F50C7089
:100F0000FFF7BAFF04F12C00FFF7CAFF04F1140049
:100F1000FFF7DCFF204610BD6CB3010808B502489E
:100F2000FFF7E8FF08BD00BFAC01002010B5044684
:100F3000FFF7E0FF20464FF4697118F0C5FE204628
:100F400010BD00002DE9F34100F0B8FF054600F0A8
:100F5000B9FF0024014623462846224600940BF0A0
:100F600047FA254B254A264D1A60204601F04CFCD5
:100F700024480BF0A5F92B68BFF35B8FDB0735D452
:100F8000284618F0A3FE88B31F4C204B236004F5BD
:100F9000127604F1140004F12C0804F50C7760605B
:100FA000C4F80880E760266106F0E8FA184B636130
:100FB000404606F0E3FA174BE362384606F0DEFAE5
:100FC000154BC4F8303204F5117001F08BFC224649
:100FD00004F51171304601F07BFC304601F0E2F877
:100FE0000E4818F0BDFE284618F07CFE0C4802B0F2
:100FF000BDE8F041FFF760BC982401207013002089
:10100000A801002008000020AC0100206CB30108FA
:10101000D0B2010804B3010838B301081D0F00085D
:10102000F4120020704700000148FFF753BC00BFD6
:10103000F412002070B5224E224C234D234B236026
:101040003046FFF7A9FD28460FF09EFC204B2148B3
:10105000DC6000224FF48071C3E912121E491A8627
:10106000C3E91A121D4999671D4983F858200B607E
:10107000F02101801B485A6601801B4883F87020CC
:101080004FF4A071C3E90422C3E90622C3E9082290
:10109000C3E90A22C3E90E22C3E91022C3E91422DC
:1010A000C3E917225A67C3E9016501800F4801802F
:1010B0000F490A70012283F834200E4A1A6070BD6D
:1010C000540500205005002074130020D8AD0108FD
:1010D000F412002030240120010000010000010171
:1010E0003C24012036240120322401203824012010
:1010F0003424012064AF01080148FFF729BD00BF77
:10110000540500200020704781807047C1807047DF
:101110000181704741817047704770477047704741
:10112000704710B4C4880368121B84885B6D091B68
:1011300012B25DF8044B09B218474FF6FF73838172
:101140004FF0FF3303621368C3611060704790F87B
:1011500025201AB190F8242002B1186070470000D1
:10116000034B902283F85A2383F85823704700BF1B
:1011700000E100E0094A0A49D3680A48C3F30A03B8
:10118000013B9BB20B801169C1F30A010139018057
:101190001364536B43F001035363704700680140CD
:1011A000FA130020F8130020014BD3F8AC0070476D
:1011B00000680140024B0122C3F8AC105A6270472C
:1011C0000068014070B5044606F0D7FC23685D6EE8
:1011D00008F0A8FC01462046A8472368054AD3F832
:1011E00088502046AC460023BDE87040A2F5163179
:1011F000604700BF00B004D006F0A6BC06F0B0BC4B
:1012000006F06CBC06F0CDBD90F8252012B1036845
:101210005B69184770470000034B4FF080629A608B
:101220004FF080729A60704700E100E0084B4FF089
:101230008062C3F88820BFF34F8FBFF36F8F4FF0EA
:101240008072C3F88820BFF34F8FBFF36F8F704752
:1012500000E100E010B5144C236823B3134B144A8B
:101260001B6C11888B4213D1124B198802F0D8FEE7
:10127000226892F86A30013382F86A30FFF716FC70
:10128000206807F0B9F9BDE810400020FFF75ABA0E
:1012900002F0C6FE206803681B6A9847BDE810404C
:1012A0000020FFF779BA10BD3C24012000680140FE
:1012B000FA130020F813002007B5064BADF806001E
:1012C0001B68054801220DF1060103F0F1FB03B094
:1012D0005DF804FB100000208015002008B5642094
:1012E00004F0B3F8FBE7000030B595B01022002100
:1012F0000AA818F01CFF1422002103A818F017FFF9
:1013000000241D4B01941A6C42F080521A641B6C2D
:1013100003F080530193019B184B02941A6842F426
:1013200040421A601B6803F4404302930122029B6F
:101330004FF48033CDE9082302254FF48003CDE933
:101340000E5308214FF4A873CDE9101308A8042305
:101350001393129502F082FE0F23CDE903354FF46B
:10136000A0504FF48053CDE90603052103A805944E
:1013700003F04EF815B030BD003802400070004058
:1013800080B59AB001F0E0FDFFF7AEFF1422002116
:101390000DA8002418F0CBFEC04B00941A6BC04877
:1013A000C04D42F010021A631A6B02F01002009254
:1013B000009A01941A6B42F020021A631A6B02F031
:1013C00020020192019A02941A6B42F080021A6381
:1013D0001A6B02F080020292029A03941A6B42F096
:1013E00004021A631A6B02F004020392039A049433
:1013F0001A6B42F001021A631A6B02F001020492A6
:10140000049A05941A6B42F002021A631A6B02F0F6
:1014100002020592059A06941A6B42F040021A6382
:101420001A6B02F040020692069A07941A6B42F079
:1014300008021A631B6B03F00803079322463C2142
:10144000079B02F00BF898482246042102F006F8A8
:10145000224696484FF4405102F000F801264FF022
:1014600003083C238E48CDF840800DA902274FF099
:101470000409CDE90D360F9401F004FF8A480F945A
:101480000DA9CDE90D96109701F0FCFE0DA94FF4C2
:1014900040538648CDE90D36CDE90F4701F0F2FE05
:1014A0008348844B036001F0E1FD834A834B2C6247
:1014B000C5E9002328464FF48043C5E90434C5E953
:1014C0000244C5E9064402F0B3F91021284602F0AF
:1014D000EFFB2146284602F00AFC794879498462EC
:1014E0004FF48273C0E900134FF400751823C0E96C
:1014F00006530A23744DC362C0E90244C0E90444A0
:10150000C0E9084403F078FA704B0D974FF0100CC7
:10151000C5E900364023C5E904C34FF4C073C5E9EB
:1015200006344FF40063C5E908344FF40053AB624E
:101530000DA907232846CDE90E39CDE910384FF023
:10154000080AC5E90249CDE9127703F053F94FF6CD
:10155000FF7209A92846CDE90AA6089409960C94B9
:1015600003F068F9304601F01BFD4FF6FF7209A940
:101570002846CDE9097ACDE90B6403F05BF94FF613
:10158000FF7209A92846CDE9098ACDE90B9403F039
:1015900051F94FF40C730893089B0C934FF6FF72AC
:1015A00009A92846CDE9099A0B9603F043F940F2C0
:1015B0006A51284603F05CF9342221460DEB020003
:1015C00018F0B5FD424D434BAC86C5E90034092304
:1015D000C5E905361D2340F20D1EC5E9073840F266
:1015E0004313C5E909E3284640F2471340F21718B0
:1015F000C5E90B83C5E902442C6185F8364002F049
:1016000017FCFF21F022CDE912144FF48069052167
:101610004FF4A073CDE90E24CDE91491CDE9164223
:101620000DA922462846CDE910372B4D18930D946D
:10163000ADF864408DF8664002F0C5FC274B2B6086
:101640001B6898472B68264DDB689847254BC5E9F2
:101650000A47C5E90C442846C5E90034C5E90274C7
:1016600001F014FD3146284601F0C8FDFEF7B8FF31
:10167000FEF7B5FF03F076FE1B4A1C48214603F037
:101680009DFE1B4B1B4A186021461B4803F096FE2B
:101690001A4B186003F078FEFEE700BF00380240E6
:1016A000001002405014002000080240000C0240CC
:1016B0000814002000300240005C0040A0860100B9
:1016C00080150020005001404C150020400100A072
:1016D000A414002000680140001400201400002021
:1016E0001014002000B00240B4B30108DD1200085D
:1016F0000414002090B30108EF050008FC1300203B
:10170000704770477FB5094B8DF817201B6802930F
:101710000DF117020123009201930A460146044885
:1017200002F02EF907B05DF804FB00BF0C000020AA
:10173000501400207FB500238DF81730084B1B682C
:1017400002930A4601230DF117010091019301460E
:10175000044802F0A5F99DF8170007B05DF804FBF6
:101760000C000020501400201FB5084C2468009283
:10177000CDE901340A4601230146054802F090F9FB
:10178000003818BF012004B010BD00BF0C000020BD
:101790005014002001F004BC08B5064800220421C2
:1017A00001F05CFEBDE8084002480122042101F07E
:1017B00055BE00BF0008024038B50B4D044601225B
:1017C0000A484FF4005101F049FE00220421284646
:1017D00001F044FE2046FFF76FFD28460122BDE8D8
:1017E0003840042101F03ABE00080240000C0240DB
:1017F00038B50B4D044600220A484FF4005101F061
:101800002DFE00220421284601F028FE2046FFF785
:1018100053FD28460122BDE83840042101F01EBED8
:1018200000080240000C0240F7B5144E144F054664
:101830000C4630460022042101F010FE00224FF435
:101840000051384601F00AFE2846FFF735FD0D4BE2
:101850000D481B68224601A903F0C6FA384601224A
:101860004FF40051019C01F0F9FD304601220421A2
:1018700001F0F4FD204603B0F0BD00BF00080240B7
:10188000000C0240100000208015002001F088BBF1
:101890000268034B9A4201D101F070BB704700BF50
:1018A000001000407047000082B00E4B00220092F2
:1018B000596C41F480415964596C01F480410091A4
:1018C00000990192196C41F0805119641B6C03F06E
:1018D00080530193019B0F216FF0010002B001F0D2
:1018E00085BB00BF003802400268094B9A4282B0B3
:1018F0000BD100230193074B1A6B42F480521A63F9
:101900001B6B03F480530193019B02B0704700BF2F
:10191000003002400038024007B50F4B02689A427F
:1019200016D10022A3F5F0430192196B41F4000196
:1019300019631B6B03F40003019305215A20019BDB
:1019400001F054FB5A2003B05DF804EB01F080BBBA
:1019500003B05DF804FB00BF00B002402DE9F04386
:10196000044689B01422002103A818F0E0FB226885
:10197000244B9A4243D1244C244800250095236BE4
:1019800043F004032363236B03F004030093009BE1
:101990000195236B43F001032363236B03F00103E1
:1019A0000193019B4FF012094FF400734FF00108AF
:1019B0000327042603A9CDE90339CDE90587079656
:1019C00001F060FC4FF480731148079603A9CDE93C
:1019D0000339CDE9058701F055FC0295236C43F4EA
:1019E00000032364236C03F400030293029B236A25
:1019F00043F400032362236A23F40003236209B043
:101A0000BDE8F083005C004000380240000802405E
:101A100000000240F0B599B004461422002107A846
:101A200018F085FB30220DEB0200002118F07FFB3F
:101A300022685E4B9A4240F0B78008230C93C02383
:101A40001093042312930CA84FF40033159302F063
:101A5000A7FD08B1FFF726FF554B56480024009418
:101A60005A6C42F080625A645A6C02F080620092B2
:101A7000009A01941A6B42F020021A631A6B02F06A
:101A800020020192019A02941A6B42F001021A6339
:101A90001A6B02F001020292029A03941A6B42F04E
:101AA00002021A631A6B02F002020392039A049470
:101AB0001A6B42F040021A631A6B02F04002049261
:101AC000049A05941A6B42F004021A631A6B02F02E
:101AD00004020592059A06941A6B42F008021A63F2
:101AE0001B6B03F00803069302250E26069B0B963C
:101AF0004FF4806307A9CDE90735CDE9094501F029
:101B0000C1FB41F658032C480B9607A9CDE90735D0
:101B10000927CDE9094501F0B5FB032327480B97B9
:101B200007A9CDE90735CDE9094501F0ABFB4FF435
:101B3000706322480B9607A9CDE90735CDE9094521
:101B400001F0A0FB4FF40C631D480B9607A9CDE9EB
:101B50000735CDE9094501F095FBC02319480B96DF
:101B600007A9CDE90735CDE9094501F08BFB08232D
:101B700015480B9607A9CDE90735CDE9094501F0D0
:101B800081FB4FF4A0530E480B9707A9CDE9073509
:101B9000CDE9094501F076FB58202246052101F0E8
:101BA00025FA582001F054FA19B0F0BD0068014040
:101BB00000380240001402400000024000040240CD
:101BC0000018024000080240000C024010B5044614
:101BD00088B01422002103A818F0A9FA2268144B37
:101BE0009A4223D103F56843002101915A6C1148B0
:101BF00042F480125A645A6C02F480120192019AE3
:101C000002911A6B42F020021A631B6B03F020034F
:101C10000293029B4FF4607202230321CDE9032358
:101C20000523CDE9061303A901F02CFB08B010BD74
:101C300000500140001402402DE9F04186B000231D
:101C400003932B4B1C68002C4FD14FF00108C3F8B5
:101C50000080284B00949A6B274842EA08029A6356
:101C60009B6B03EA08030093022703260C25009BC5
:101C700001A94FF63F03CDE90137CDE9046501F035
:101C800001FB1E48059501A9CDE90187CDE9034671
:101C900001F0F8FA48F233131948059501A9CDE986
:101CA0000137CDE9034601F0EDFA4FF6837315488D
:101CB000059501A9CDE90137CDE9034601F0E2FA26
:101CC0004CF203731048059501A9CDE90137CDE920
:101CD000034601F0D7FA60230C48059501A9CDE928
:101CE0000137CDE9034601F0CDFA06B0BDE8F08139
:101CF000D8150020003802400014024000080240BD
:101D00000018024000100240000C02400004024093
:101D100070B588B000230293204B1A6C42F0100279
:101D20001A641B6C03F010030293054601A903A873
:101D3000029B02F017FC069B4BBB02F003FC184E03
:101D4000184B336040F2E733F360174BB0FBF3F30B
:101D5000013B7360304600233361B360B36103F02D
:101D600027FA044680B9304603F0DCF8044658B937
:101D7000362001F06DF90F2D0DD822462946362068
:101D800001F034F9094B1D60204608B070BD02F027
:101D9000D9FB4000D3E70124F6E700BF003802403A
:101DA000DC1500200010004040420F007C000020A5
:101DB0007047FEE7FEE7FEE7FEE77047014803F0E5
:101DC000EFB800BFDC150020014802F09FB800BF4B
:101DD000A4140020014801F087B900BF10140020AE
:101DE0000120704708B518F045FA162303604FF03C
:101DF000FF3008BD08B518F03DFA16230360FEE772
:101E000070B50D4614460E46731B9C4201DC2046FD
:101E100070BDAFF3008006F8010BF5E770B50D4615
:101E200014460E46731B9C4201DC204670BD16F81A
:101E3000010BAFF30080F5E74FF0FF3070474FF430
:101E400000534B600020704701207047002070470E
:101E50000A4A116808B5034609B9094911601068B2
:101E6000694603448B4206D918F004FA0C23036038
:101E70004FF0FF3008BD1360FCE700BF24160020C0
:101E800070300120704710B50421044617F01CFF84
:101E9000204610BD012908B506D0022908D059B93D
:101EA00000F0F0FC006808BD00F0ECFC4068FAE7C8
:101EB00000F0E8FC8068F6E70020F4E7004870478F
:101EC000ECB301080120704713B5002451B1036839
:101ED00001948DF8034001AA9C680DF10303A0470B
:101EE00002B010BD0846FBE7C0897047008A704702
:101EF000C088704780887047807A00F07F00704704
:101F0000807AC00970477047704700F59873086879
:101F1000496803C370477047704741607047704716
:101F2000064BC0F84C310023C0F8503100F5A273C5
:101F3000C0F84801C0F84031704700BFE51F0008F5
:101F40000123037270477047704710B4C26841683C
:101F50005410034601EB6200D20748BF0A599B6840
:101F60005DF8044B48BFD358184743682BB18368CA
:101F70002BB9C06800F00100704718467047012077
:101F8000704710B50C21044617F09EFE204610BD88
:101F900010B51021044617F097FE204610BD10B56D
:101FA0004FF4AE71044617F08FFE204610BD10B5F9
:101FB00007F0B8FD0368BDE81040DB6B184710B5AB
:101FC0000446D0F8400158B10368DB68984738B13F
:101FD000D4F8400103689B6898470023C4F8403157
:101FE00010BD00002DE9F14FD0E9555A0746A86809
:101FF00003681B6A9847B0F5FE7F05D2454B464AF9
:10200000A321464817F08EFE686803681B6A98474C
:102010000F2803D8424B404AA421F2E7E86803683E
:102020001B6A98470B2803D83E4B3B4AA521E8E79B
:1020300007F078FDDFF8F490043007F098FDD9F848
:10204000000010B10368DB689847D9F8000010B1B0
:1020500003681B689847DFF8D880D8F8000010B1F3
:1020600003685B699847D7F83C0110B103685B6867
:102070009847D8F8000010B103681B689847D7F854
:102080003C0110B103689B689847E8680368002129
:102090005B6A98474FF0000B234B03600446C0F87F
:1020A00004B080F808B0A868036859465B6A98478E
:1020B000064600F04FFC6868036859465B6A98471B
:1020C0003146054600F020FCC9F80040C7F83C51F5
:1020D000C8F80060E5B12B1DCAF800303368C5F8B8
:1020E00008A03046DB68F56398472B6828461B68D4
:1020F00098472146304609F0DFF9236820461B69DE
:10210000984723685B69204601B0BDE8F04F184747
:102110002B46E1E700B401088EB4010892B501082E
:10212000D9B501087CB6010894B701087C240120C8
:1021300078240120044B1B6893F858200AB1D86C0E
:1021400000B99868704700BF3C24012070B5044670
:102150000D46164607F0A8FD0E4A14600E4A22608E
:102160000E4A0023C4E95123C4E95333C4E94F3371
:102170000B4B1868036801219B68C4E955659847B3
:10218000FFF7D8FF10F02FFAFFF7D4FF10F0A6FAF0
:10219000204670BD8824012040B7010828B70108F7
:1021A0003C240120064BC0F84C310023C0F85031CC
:1021B00000F5A273C0F84801C0F84031704700BF75
:1021C000E51F0008406A7047806A704770478B8837
:1021D000C0690A68DB0A50F823001044704710B544
:1021E000C2B1137BB3B1547BD27A240204F4E0640D
:1021F0001443026A98B202EB840213888B4202D124
:1022000092F9020010BD05D8013880B204320028CE
:10221000F3D1F7E70020F5E710B52C21044617F0BD
:1022200053FD204610BD000030B58BB00446BDF80C
:1022300060500895BDF85C5007959DF85050069584
:102240009DF84C5005959DF8485004959DF84450D4
:1022500003959DF8405002959DF83C500195BDF8BE
:102260003850009508F082FD064B2360159BE36112
:10227000169B2362199B63621A9BA36220460BB0D4
:1022800030BD00BFB8B7010870477047704770474E
:10229000704770477047704770477047704700F548
:1022A0008E73994270B504460D4602D10368DB6A0D
:1022B000984704F5A8739D4203D1236820461B6B01
:1022C000984704F5C2739D4203D1236820465B6B97
:1022D000984704F5DC739D4205D1236820469B6B2B
:1022E000BDE87040184770BD704730B4C26844689C
:1022F0005510034604EB6200D20748BF62599B6841
:1023000030BC48BFD358184743682BB183682BB9FA
:10231000C06800F001007047184670470120704700
:1023200010B51021044617F0CFFC204610BD10B5A3
:102330004FF4FE71044617F0C7FC204610BD70B57F
:10234000036804461B6B15469847236829462046B8
:102350005B6BBDE87040184770B504461D46BDF97B
:102360001060FFF7ECFF2368294620469B6B9847D7
:10237000236831462046DB6BBDE8704018470000FB
:10238000094A02604FF4807100228184FF21C0E974
:102390000122C0E90322C0E90522C0E9072280F832
:1023A00026108262704700BF3CBC01080022C0E9D1
:1023B0000122C0E90322C0E90522C0E907228262A6
:1023C00080F82C2040F201128284044A02604FF609
:1023D000FF72C285028680F832207047A4BC0108D3
:1023E0002DE9F04F2DED048B044685B027460025DE
:1023F00008F0B6FE744BE56347F8403B3846FFF7FC
:10240000BFFF04F16C03184608EE103AFFF7B8FF5F
:1024100004F19803184608EE903AFFF7B1FF04F173
:10242000C403184609EE103AFFF7AAFF04F1F003BF
:10243000184604F58E7909EE903A04F5A878FFF76E
:102440009FFF4846FFF7B2FF04F5C27B4046FFF707
:10245000ADFF04F5DC7A5846FFF7A8FF5046FFF7BA
:10246000A5FF5A4BC4E97B34594BC4E97D354FF481
:10247000A0732A46009329463846F023261DFFF70D
:102480006BFF4FF07F43A36639463046A02705F027
:1024900089F82A4618EE100A009729467823FFF794
:1024A0005BFF4C4BC4F8943018EE101A304605F020
:1024B00079F878232A4618EE900A00971946FFF714
:1024C0004BFF444BC4F8C03018EE901A304605F06C
:1024D00069F83A4619EE100A009729467823FFF763
:1024E0003BFF3C4BC4F8EC3019EE101A304605F0B7
:1024F00059F878233A4619EE900A00971946FFF7E3
:102500002BFF344BC4F8183119EE901A304605F001
:1025100049F8484614226FF00E01FFF710FF04F54A
:10252000F67703AA02A94846ADF80850ADF80C505A
:1025300006F0F2F949463046C4F8447105F032F825
:10254000404614226921FFF7FAFE03AA02A9404679
:10255000ADF80850ADF80C5006F0DEF941463046B3
:10256000C4F8787105F01EF85846B4226FF00E01D9
:10257000FFF7E5FE03AA02A95846ADF80850ADF8EA
:102580000C5006F0C9F959463046C4F8AC7105F054
:1025900009F85046B4226921FFF7D1FE03AA02A927
:1025A0005046ADF80850ADF80C5006F0B5F930467D
:1025B000C4F8E071514604F0F5FF204605B0BDECCB
:1025C000048BBDE8F08F00BF30B8010818B80108CF
:1025D0009F22000809CC02FF7047000030B5164D5D
:1025E0002C68BFF35B8F14F001048FB020D1284614
:1025F00017F06CFBE0B13F230993104B0893104B8D
:10260000104911480A940122CDE906430423CDE97B
:1026100003320A230093CDE90B44CDE9014405942C
:10262000FFF702FE094817F09BFB284617F05AFBFC
:1026300005480FB030BD00BF281600202CC301088C
:1026400038C30108FCC201082C160020D925000857
:102650007047000030B5164D2C68BFF35B8F14F047
:1026600001048FB020D1284617F030FBE0B13F23A2
:102670000993104B0893104B104911480A940122FA
:10268000CDE906430423CDE9033214230093CDE9B9
:102690000B44CDE901440594FFF7C6FD094817F046
:1026A0005FFB284617F01EFB05480FB030BD00BF8A
:1026B0005816002030C301083CC301080CC30108B0
:1026C0005C160020512600087047000030B5164DFA
:1026D0002C68BFF35B8F14F001048FB020D1284623
:1026E00017F0F4FAE0B13F230993104B0893104B15
:1026F000104911480A940122CDE906430423CDE98B
:10270000033228230093CDE90B44CDE9014405941D
:10271000FFF78AFD094817F023FB284617F0E2FA75
:1027200005480FB030BD00BF8816002034C3010833
:1027300040C301081CC301088C160020C9260008EC
:1027400000207047002070470EB403B503AB002192
:1027500053F8042B019308F031F902B05DF804EB53
:1027600003B070470CB407B504AB53F8042B0193C6
:1027700008F024F903B05DF804EB02B070470000E4
:10278000436C10B5044673B3038F2BB9184B194A29
:10279000C521194817F0C6FAC38E00EB43035B8CC2
:1027A0000BB309F052FB238F012B03D8134B144AB0
:1027B000CB21EEE7E28E531C9BB2092B194688BF52
:1027C000A3F10A0104EB410140F63F10498C81421C
:1027D00009D10A2B04EB420228BF002304EB430378
:1027E000508C588451842046BDE8104009F030BA1E
:1027F0006CB8010875B8010820B901086AB9010868
:1028000078B9010809F0EBB938B518BB124B134879
:102810001C681349B4B122682244026062682244F1
:102820000A60A26814440F4B00221A8000F02AF8B4
:10283000054600F025F80C4B1C600C4B1D600C4B42
:10284000188007E00B4B03600B4B0B600B4B1C68B5
:10285000002CE8D138BD00BFB8160020BC160020FF
:10286000C0160020C41600208C24012094240120CE
:102870009024012048C3010844C3010850C3010843
:102880000020704700487047C816002010B5FFF7B9
:10289000E1FE044C2060FFF719FF6060FFF79EFE29
:1028A000A06010BDC8160020704710B54FF4AE717F
:1028B000044617F009FA204610BD10B50446D0F8BA
:1028C000580100F012F82046BDE8104007F0ACB9FE
:1028D00010B50446FFF73AFC014B2360204610BDBB
:1028E00054BA0108002202607047704770470438EC
:1028F0007047704710B51021044617F0E5F92046DF
:1029000010BDA0F10400F5E710B500228260044A72
:10291000C16002F1080420320460426010BD00BFB3
:10292000A0BA01087047000010B5034B03600446CD
:10293000FFF7B3FC204610BDD0BA010810B504461D
:10294000FFF7F2FF20464FF4FE7117F0BDF9204665
:1029500010BD000010B50446FFF742FD014B236097
:10296000204610BDD0BA0108FFF798BC0346064ABE
:10297000D3F81811914208BF4FF47F02F030C3F82A
:10298000182108F045B900BF09CC02000346064AE9
:10299000D3F8EC10914208BF4FF47F02C430C3F863
:1029A000EC2008F035B900BF09CC02000346064A06
:1029B000D3F8C010914208BF4FF47F029830C3F89B
:1029C000C02008F025B900BF09CC02000346064A22
:1029D000D3F89410914208BF4FF47F026C30C3F8D3
:1029E000942008F015B900BF09CC0200F020704710
:1029F0004FF4A07070472920FEF7FABE2820FEF79A
:102A0000F7BE08B5FEF7C8FECA20FEF7F1FEC320E8
:102A1000FEF7D2FE0820FEF7CFFE5020FEF7CCFED8
:102A2000CF20FEF7E5FE0020FEF7C6FEC120FEF730
:102A3000C3FE3020FEF7C0FEED20FEF7D9FE642075
:102A4000FEF7BAFE0320FEF7B7FE1220FEF7B4FE33
:102A50008120FEF7B1FEE820FEF7CAFE8520FEF7D2
:102A6000ABFE0020FEF7A8FE7820FEF7A5FECB20E7
:102A7000FEF7BEFE3920FEF79FFE2C20FEF79CFEDF
:102A80000020FEF799FE3420FEF796FE0220FEF7A6
:102A900093FEF720FEF7ACFE2020FEF78DFEEA2025
:102AA000FEF7A6FE0020FEF787FE0020FEF784FE5C
:102AB000B120FEF79DFE0020FEF77EFE1B20FEF7F4
:102AC0007BFEB620FEF794FE0A20FEF775FEA220DC
:102AD000FEF772FEC020FEF78BFE1020FEF76CFEA4
:102AE000C120FEF785FE1020FEF766FEC520FEF72A
:102AF0007FFE4520FEF760FE1520FEF75DFEC72035
:102B0000FEF776FE9020FEF757FE3620FEF770FEA9
:102B1000C820FEF751FEF220FEF76AFE0020FEF705
:102B20004BFEB020FEF764FEC220FEF745FEB62045
:102B3000FEF75EFE0A20FEF73FFEA720FEF73CFEF2
:102B40002720FEF739FE0420FEF736FE2A20FEF786
:102B50004FFE0020FEF730FE0020FEF72DFE002085
:102B6000FEF72AFEEF20FEF727FE2B20FEF740FEA1
:102B70000020FEF721FE0020FEF71EFE0120FEF7DA
:102B80001BFE3F20FEF718FEF620FEF731FE012067
:102B9000FEF712FE0020FEF70FFE0620FEF70CFEE9
:102BA0002C20FEF725FEC820FEF770FE2620FEF73B
:102BB0001FFE0120FEF700FEE020FEF719FE0F20A9
:102BC000FEF7FAFD2920FEF7F7FD2420FEF7F4FDBD
:102BD0000C20FEF7F1FD0E20FEF7EEFD0920FEF7BA
:102BE000EBFD4E20FEF7E8FD7820FEF7E5FD3C20EA
:102BF000FEF7E2FD0920FEF7DFFD1320FEF7DCFD06
:102C00000520FEF7D9FD1720FEF7D6FD1120FEF7AF
:102C1000D3FD0020FEF7D0FDE120FEF7E9FD002006
:102C2000FEF7CAFD1620FEF7C7FD1B20FEF7C4FD08
:102C30000420FEF7C1FD1120FEF7BEFD0720FEF7C0
:102C4000BBFD3120FEF7B8FD3320FEF7B5FD422075
:102C5000FEF7B2FD0520FEF7AFFD0C20FEF7ACFD40
:102C60000A20FEF7A9FD2820FEF7A6FD2F20FEF77B
:102C7000A3FD0F20FEF7A0FD1120FEF7B9FDC8202F
:102C8000FEF704FE2920FEF7B3FDBDE808402C2026
:102C9000FEF7AEBD08B5FEF77FFD0321D320FEF79A
:102CA000C3FD80B208BD10B5C4B202220321204684
:102CB000FEF728FD0A20FEF76DFD204600220321C5
:102CC000FEF720FDBDE810400220FEF763BD38B5D9
:102CD0000446E4B2FEF714FD00212046FEF72AFD6B
:102CE000012105462046FEF725FD40EA052080B279
:102CF00038BD10B5C4B240212046FEF71BFD0306C7
:102D000007D54C212046FEF715FD003818BF0120DD
:102D100010BD01224B212046FEF7F4FC2046002284
:102D20004B21FEF7EFFC0020F2E773B50423C4B299
:102D30000E461546D7210DEB03022046FEF714FD83
:102D4000019B1BBA1A0DC3F30B23328020462B8044
:102D500001224B21FEF7D6FC00224B212046FEF734
:102D6000D1FC02B070BD000010B50A4B1A78904239
:102D700004460DD0597888420AD00AB141B90122DF
:102D80009C54FEF7BDFC2046BDE81040FFF78BBF0A
:102D900010BD00BFD416002010B5C4B209212046D2
:102DA000FEF7C8FC40F00100C2B209212046BDE890
:102DB0001040FEF7A7BC10B5C4B209212046FEF7AB
:102DC000B9FC092100F0FE022046BDE81040FEF7E4
:102DD00099BC38B5C4B20D4620460A21FEF7AAFCBC
:102DE00040EA0502D2B220460A21BDE83840FEF78B
:102DF00089BC07B50190FEF784FC01981F21FFF7FD
:102E0000E8FF019803B05DF804EBFFF7C5BF38B5E4
:102E1000C4B20D4620460A21FEF78CFC20EA0502CA
:102E2000D2B220460A21BDE83840FEF76BBC10B58F
:102E30000446FFF7C0FF20461F21BDE81040FFF702
:102E4000E6BF10B5C0B20C460B21FEF773FC204064
:102E500010BD1F21FFF7F5BF0A46C0B20B21FEF7D8
:102E600051BC1F21FFF7F8BF38B5C4B20D4620464C
:102E70001721FEF75FFC20EA0502D2B22046172197
:102E8000BDE83840FEF73EBC70B5C4B2064604212A
:102E90002046FEF74FFC042100F0FB0205462046C9
:102EA000FEF730FC3046F021FFF7DEFF05F0F802B8
:102EB00020460421FEF726FC492220212046FEF769
:102EC00021FC0220FEF766FC204601222121FEF7AC
:102ED00019FC20469A224121FEF714FC20460122CB
:102EE0004A21FEF70FFC204601224B21FEF70AFC87
:102EF000204600224B21FEF705FC204601225621E8
:102F0000FEF700FC204601225821FEF7FBFB20467D
:102F100001224021FEF7F6FB2046FF220B21FEF79F
:102F2000F1FBBDE870400220FEF734BC054BD3F83E
:102F3000882042F47002C3F888204FF000629A6043
:102F4000704700BF00ED00E008B50B4B1A6842F473
:102F500000721A601A6842F480621A601A6842F4B9
:102F600080721A60032000F02FF80020FEF7D0FED8
:102F7000FEF79AFC002008BD003C0240034A044BC7
:102F800011681B780B441360704700BFD8160020EF
:102F900078000020014B1868704700BFD816002049
:102FA00038B50446FFF7F6FF631C1CBF054B1B78C2
:102FB000054618BFE418FFF7EDFF431BA342FAD301
:102FC00038BD00BF780000200749CA6822F4E062DB
:102FD0000302120403F4E063120C134343F0BF63D3
:102FE00043F40033CB60704700ED00E0164B30B582
:102FF000DC68C4F30224C4F10703251D042B28BF99
:103000000423062D4FF0FF358CBF033C002405FA46
:1030100003F321EA0303A54022EA0502A3400028A6
:1030200043EA0203ACBF00F16040084A4FEA0313D1
:10303000B8BF00F00F00DBB2AABF00F56140135427
:1030400080F8003330BD00BF00ED00E014ED00E07B
:10305000002807DB4109044A00F01F0001238340D8
:1030600042F82130704700BF00E100E010B504468F
:1030700050B1437903F0FF0213B90271FEF734FC3B
:1030800001236371002010BD0120FCE710B5044648
:1030900030B390F8393003F0FF021BB980F83820C4
:1030A000FEF73AFC22686168022384F8393013681D
:1030B00023F440330B431360536BA16823F00703E1
:1030C0000B435363136CE16823F47F5323F03F03F6
:1030D0000B43136400200123E06384F8393010BDF2
:1030E0000120FCE770477047036870B55E681D6893
:1030F000F207044614D5E90512D51A6822F4807245
:103100001A60C26B42F00102C26301229A6004237A
:1031100080F83930002380F83830436903B198478C
:10312000B20616D5AB0414D523681A6822F40052EF
:103130001A6020229A60E36B43F00203E3630423E6
:1031400084F83930002384F8383063690BB12046A5
:103150009847300716D5290514D523681A6822F434
:1031600000621A6008229A60E36B43F00403E36391
:10317000042384F83930002384F8383063690BB1B4
:103180002046984772070BD56B0509D523681A6846
:1031900022F480621A6004229A602046FFF7A2FFA0
:1031A000B00714D5A90512D523681A6822F4007255
:1031B0001A6002229A60E36BE363012384F83930DA
:1031C000002384F8383023690BB120469847F20673
:1031D00013D5EB0411D523681A6822F480521A60C3
:1031E00010229A60E36BE363012384F839300023F3
:1031F00084F838302046FFF776FF70BDF0B590F8C0
:103200003830012B4FF002032BD0012280F83930E7
:1032100080F8382000EB0113D3E907425D6A184FAC
:1032200044EA0242093C012C9CBF05F07F431A434B
:103230004FEA0116036888BF42EA056299B9596AE4
:1032400039400A435A62012C82699A6103D8426A62
:1032500022F07F429A62012380F83930002380F8FF
:1032600038301846F0BDD96939400A43DA6182190D
:10327000012C92691A619CBF25F07F451D62EAE727
:10328000F0FFFC002DE9F74FDFF8C0916D4A0023F5
:103290000D6801249C4004EA050CAC4340F0B98061
:1032A0004D6805F003044FEA43080326671E06FA3B
:1032B00008F6012F6FEA060634D8876807EA060E7B
:1032C000CF6807FA08F747EA0E078760476827EADA
:1032D0000C0EC5F300179F4047EA0E074760C7680A
:1032E00007EA060E8F6807FA08F747EA0E07022C6E
:1032F000C76019D14FEAD30A00EB8A0A03F0070B23
:10330000DAF820704FEA8B0B4FF00F0E0EFA0BFE1F
:1033100027EA0E0E0F6907FA0BF747EA0E07CAF8FD
:10332000207001E0032CDAD1076804FA08F4374072
:103330003C4315F4403F04606BD04FF0000ACDF8D9
:1033400004A0D9F84460404C46F48046C9F8446073
:10335000D9F8446006F480460196019E23F00306E6
:1033600006F1804606F59C3603F0030ED6F8088079
:103370004FEA8E0E0F2707FA0EF7A04228EA07073A
:103380004ED004F58064A0424CD004F58064A04285
:103390004AD004F58064A04248D004F58064A0427D
:1033A00046D004F58064A04244D004F58064A04275
:1033B00042D004F58064A04240D004F58064A0426D
:1033C0003ED004F58064A0420CBF09240A2404FA0C
:1033D0000EF43C43B46094686FEA0C06EF0254BFED
:1033E00034404CEA04049460D468AF0254BF3440C3
:1033F0004CEA0404D4605468AF0354BF34404CEA30
:10340000040454601468ED0354BF34404CEA0404CF
:1034100014600133102B7FF43BAF03B0BDE8F08F95
:103420005446D4E70124D2E70224D0E70324CEE7B0
:103430000424CCE70524CAE70624C8E70724C6E726
:103440000824C4E7003C014000000240003802406C
:103450000369194214BF0120002070470AB181613D
:1034600070470904FBE7436901EA030221EA03010B
:1034700041EA02418161704701684B6913F480633E
:103480004FF0000210D06FF480634B612023026381
:1034900080F83D3080F83E20036C80F83C2043F0FB
:1034A0000403036401207047184670472DE9F8466D
:1034B00006460F4691461D464FEA114A3368BAF157
:1034C000010F0CBF5C699C6927EA0404A4B2B4FA3A
:1034D00084F46409A14501D0002017E06A1CEED0F5
:1034E000FFF758FD089BC01AA84201D8002DE5D16E
:1034F00000232022336386F83D2086F83E30326C6C
:1035000086F83C3042F0200232640120BDE8F886A3
:103510002DE9F04104460F4616469846256868692D
:1035200027EA000080B2B8B16B695A0516D52B683E
:1035300043F400732B606FF480636B6120220023DF
:10354000236384F83D2084F83E30226C42F004026C
:10355000226484F83C300120BDE8F081731CDED089
:10356000FFF718FDA0EB0800B04201D8002ED5D11E
:1035700000232022236384F83D2084F83E30226C0F
:1035800042F02002E4E770B504460D461646216875
:103590004B6913F0400301D0002010E04A69D206C5
:1035A0000ED56FF010024A612022236384F83D207B
:1035B00084F83E30226C226484F83C30012070BDD7
:1035C000FFF7E8FC801BA84201D8002DDFD10023C3
:1035D0002022236384F83D2084F83E30226C42F0A0
:1035E0002002E8E770B504460D46164623685B697D
:1035F0001B0601D5002070BD2046FFF73DFFA8B98E
:103600006A1CF3D0FFF7C6FC801BA84201D8002D2E
:10361000ECD100232022236384F83D2084F83E303F
:10362000226C84F83C3042F0200222640120E2E760
:103630002DE9F0431546026885B0DDE90C7899461E
:10364000136843F4807313600E463B46CDF8008048
:1036500000224FF001110446FFF728FF236838B11C
:103660001B68DB0502D54FF40073236403200AE0D6
:1036700006F0FE061E61194943463A462046FFF70A
:1036800047FF18B1012005B0BDE8F083236803901F
:103690005A6903929B690393424639462046039B2D
:1036A000FFF7A0FF40B1236C042B01BF2268136811
:1036B00043F400731360E5E7B9F1010F236802D109
:1036C000EDB21D61DFE72A0A1A61394642462046FB
:1036D000FFF788FF0028E6D12368F1E70200010028
:1036E0002DE9FF479A46036815461A6842F480623E
:1036F0001A601A68DDE90C7842F480721A600E468E
:103700003B46CDF8008000224FF001110446FFF740
:10371000CDFE236848B11B68DB0502D54FF400736A
:103720002364032004B0BDE8F0875FFA86F906F051
:10373000FE061E612A4943463A462046FFF7E8FE48
:1037400008B10120EEE7236803905A6903929B6950
:103750000393424639462046039BFFF743FF40B19F
:10376000236C042B01BF2268136843F400731360B9
:10377000E7E7BAF1010F23681AD1EDB242461D61A5
:1037800039462046FFF72EFF02460028E8D121687F
:103790000B6843F480730B602046CDF800803B46F5
:1037A0004FF00111FFF782FE226860B11368B3E7A2
:1037B0002A0A1A61394642462046FFF713FF0028BD
:1037C000CED12368D9E749F0010313610449434688
:1037D0003A462046FFF79CFE003818BF0120A1E7BB
:1037E0000200010070B504460D46164623685B6969
:1037F0005B0701D5002070BD2046FFF73DFEA8B94C
:103800006A1CF3D0FFF7C6FB801BA84201D8002D2D
:10381000ECD100232022236384F83D2084F83E303D
:10382000226C84F83C3042F0200222640120E2E75E
:1038300070B5044608B9012070BD90F83D3003F022
:10384000FF021BB980F83C20FEF788F8242384F897
:103850003D3023681A6822F001021A601A6842F4A7
:1038600000421A601A6822F400421A6000F06AFEF0
:103870003F4B65689D4294BF3E4B3F4B98428CBF87
:1038800000230123002BD6D12268394E51683B4BCF
:10389000B0FBF3F321F03F011943B542516088BFFB
:1038A0004FF49676116A88BF734321F03F0184BFBD
:1038B0004FF47A76B3FBF6F301330B431362D1690D
:1038C000431E2B4821F44F41854221F0FF0132D89D
:1038D0006D0040F6FC70B3FBF5F30133034242D0B8
:1038E000C3F30B031943D161D4E9073011680343D3
:1038F00021F0C0010B4313609168D4E9030321F464
:103900000341034321F0FF010B439360D4E90530E9
:10391000D168034321F0FF010B43D360136843F0E8
:103920000103136000202023206484F83D302063CD
:1039300084F83E0080E7A06850B905EB4505B3FB6D
:10394000F5F30133C3F30B037BB143F40043C9E741
:1039500019206843B3FBF0F30133C3F30B0323B126
:1039600043F44043BEE70423BCE70123BAE700BFAA
:10397000A08601007F841E00FF083D0040420F002A
:103980002DE9F743044699460C9E0F469046FFF7F3
:1039900001FB94F83D30202B054603D0022003B0F4
:1039A000BDE8F08300903C49192301222046FFF72F
:1039B0007DFD0028F2D194F83C30012BEED0206838
:1039C000012384F83C300368D9075EBF036843F0E5
:1039D00001030360036823F400630360212384F878
:1039E0003D30402384F83E30002323640A9B636209
:1039F000BDF82C306385638D2385284BE362CDE9C8
:103A000000654B46424639462046FFF711FE002826
:103A10002AD00120C3E7FFF7E5FD40B1236C042B5A
:103A200001BF2268136843F400731360F1E7636A0F
:103A300027681A4612F8011B39616262628D218D76
:103A4000013A92B262857A69481E80B25207208597
:103A50000AD548B15A783A6102336362638D013BFB
:103A600002399BB221856385238D2A463146204643
:103A7000002BD0D1FFF7B6FE0028CFD12268136803
:103A800043F400731360202384F83D3084F83C0035
:103A900084F83E0083E700BF020010000000FFFF33
:103AA0002DE9F043044687B09946109F0D46904695
:103AB000FFF770FA94F83D30202B064604D002251B
:103AC000284607B0BDE8F08300907649192301220B
:103AD0002046FFF7EBFC0028F1D194F83C30012B95
:103AE000EDD02068012384F83C300368DB075EBF1B
:103AF000036843F001030360036823F40063036079
:103B0000222384F83D30402384F83E300023236490
:103B10000E9B6362BDF83C306385638D2385624BE9
:103B2000E3622946CDE900764B4642462046FFF740
:103B3000D7FD054608B10125C2E7228D2368B2B939
:103B400002905A6902929A690292029A1A6842F4A1
:103B500000721A60DFF85481238D002B2CD12022B3
:103B600084F83D2084F83C3084F83E30A8E7012AF0
:103B70000AD11A6822F480621A6003905A6903928B
:103B80009A690392039AE1E7022A0ED11A6822F495
:103B900080621A601A6842F400621A6004905A69DE
:103BA00004929B690493049BD4E705905A6905929B
:103BB0009B690593059BCDE7032B56D8012B15D1A7
:103BC000324639462046FFF7DEFC0028B3D1236891
:103BD0001A69636A1A70636A01336362238D013B59
:103BE0002385638D013B9BB26385B5E7022B00966D
:103BF0003B464FF000024146204619D1FFF756FCE4
:103C0000002898D123681A6842F400721A601A6971
:103C1000636A1A70626A531C6362238D013B2385B9
:103C2000638D013B9BB2638523681B695370D2E7A8
:103C3000FFF73CFC024600287FF47DAF236819683B
:103C400021F4806119601969636A1970636A0096CA
:103C500001336362238D013B2385638D013B9BB25E
:103C6000638541463B462046C8E7324639462046F2
:103C7000FFF789FC00287FF45EAF23681A69636A46
:103C80001A70626A531C6362238D013B2385638D26
:103C9000013B9BB263852368596949077FF55CAF97
:103CA000C3E700BF020010000000FFFF0400010096
:103CB00010B590F83D30202BDCB216D1242380F8CB
:103CC0003D3003681A6822F001021A605A6A22F035
:103CD00010025A625A6A114359621A6842F001028C
:103CE0001A6080F83D40002010BD0220FCE730B58E
:103CF00090F83D30202BDCB216D10268242380F8E6
:103D00003D30136823F001031360556A4FF6F073DA
:103D10002B40194389B25162136843F001031360C9
:103D200080F83D40002030BD0220FCE70068D1F85B
:103D300000C0D201843283182DE9F043C6685D6863
:103D40004C68D1F8189005F470455D60C5680CF1B9
:103D50000107C5F30B45C6F30B463D44264445EA2F
:103D600006455D60C668CD68C6F30A062E449D68A8
:103D700005F470459D60C7688D68C7F30A07013573
:103D80003D4445EA06459D601D690E6925F007051D
:103D90001D614FF0000E1E619D6991F8327091F81F
:103DA0003180C3F818E091F8305045EA096545EADA
:103DB000082545EA07459D615D6925F0FF055D61C0
:103DC0004D695D61DD6925F4E06525F00705DD617C
:103DD000D1E907573D43DD619D6A4D6AC3F828E08C
:103DE0009D62FEB1013E062E1ED8104DAD5DDE6A0D
:103DF00006F0E026DE62A4EB0C048E6AC96A6C430E
:103E00006E43033444EA0644DC621C6B24F4FF6412
:103E100024F007041C631963835843F001038350A3
:103E2000BDE8F0830425E2E70125E0E724BB0108B3
:103E300038B50446002863D090F8A13003F0FF02A3
:103E40001BB980F8A020FDF7E5FD022384F8A1301E
:103E500023689A6922F070429A61D4E901200243F2
:103E6000E06899690243206902430A439A619A68AB
:103E7000244960690A409A609A6842EA0042A0694F
:103E800002439A60DA68E0690A40DA60DA6842EA76
:103E90000042206A0243DA601A69606A0A401A61C5
:103EA0001A6942EA0042A06A02431A615A690A404A
:103EB0005A615A69E16A42EA0142216B0A435A6136
:103EC000DA6A94F8350094F8361002F07F42DA622C
:103ED000DD6A94F834202A4342EA002242EA014291
:103EE000DA625A6B42F006025A639A6942F00102A2
:103EF0009A6100200123C4F8A40084F8A13038BDE1
:103F00000120FCE700F800F070477047036870B5C7
:103F10009E6B5D6B7207044614D5690712D55A6B08
:103F200022F004025A630422DA63D0F8A43043F08A
:103F30000103C0F8A430002380F8A12080F8A0304D
:103F4000FFF7E2FFB20716D5AB0714D523685A6B0B
:103F500022F002025A630222DA63D4F8A430134337
:103F6000C4F8A430042384F8A130002384F8A030DE
:103F70002046FFF7C9FFF00710D5E9070ED52368E3
:103F80005A6B22F001025A630122DA63002384F89B
:103F9000A12084F8A0302046FDF75CF9320711D546
:103FA0002B070FD523685A6B22F008025A630822A8
:103FB000DA63012384F8A130002384F8A03020467E
:103FC000FFF7A3FF70BD2DE9F04190F8A030012B61
:103FD00006460F4694464FF002001FD04FF00108EE
:103FE00086F8A08086F8A10034240D4604FB026404
:103FF0000FCD38340FC40FCD0FC40FCD0FC42B68B5
:104000002360304662463946FFF790FE3368002051
:10401000C3F8248086F8A18086F8A000BDE8F0816E
:1040200090F8A030012B4FF0020312D080F8A1309D
:1040300003685A6B22F001025A63074A11645A6BF3
:1040400042F001025A63012380F8A130002380F876
:10405000A0301846704700BF006801402DE9F341C9
:10406000044640B30368DD0710D4236898075BD487
:1040700023681A0700F19D8023685B0700F1BD806B
:10408000A069002840F0248100202CE08D4B9A6824
:1040900002F00C02042A07D09A6802F00C02082AE7
:1040A0000BD15B68590208D5864B1B689A03DCD597
:1040B0006368002BD9D1012015E06368814DB3F509
:1040C000803F13D12B6843F480332B60FEF762FFEF
:1040D0007C4E054633689B03C7D4FEF75BFF401B4D
:1040E0006428F7D9032002B0BDE8F081B3F5A02F12
:1040F00004D12B6843F480232B60E3E72A6822F481
:1041000080322A602A6822F480222A60002BDDD1C6
:10411000FEF740FF06462B689F03A6D5FEF73AFF41
:10412000801B6428F7D9DDE7664B9A6812F00C0F04
:1041300007D09A6802F00C02082A11D15B685E026F
:104140000ED4604A13689D0702D5E368012BB2D1F3
:104150001368216923F0F80343EAC103136087E77A
:10416000E268594BB2B101221A60FEF713FF554DB8
:1041700006462B68980707D52B68226923F0F803B9
:1041800043EAC2032B6073E7FEF704FF801B02289B
:10419000EFD9A7E71A60FEF7FDFE4A4E05463368E1
:1041A00099077FF565AFFEF7F5FE401B0228F6D9AB
:1041B00098E76269444B82B10122C3F8802EFEF772
:1041C000E9FE404E0546736F9F073FF555AFFEF77A
:1041D000E1FE401B0228F6D984E7C3F8802EFEF7E3
:1041E000D9FE384E0546736F98077FF545AFFEF749
:1041F000D1FE401B0228F6D974E7324B1A6C12F03C
:10420000805228D101921A6C42F080521A641B6CC1
:1042100003F080530193019B01272C4D2B68D90596
:104220001BD5A368274D012B27D12B6F43F001032A
:104230002B67FEF7AFFE234E054641F28838336FF9
:104240009B0739D5002F3FF41BAF1E4A136C23F098
:104250008053136414E70027DFE72B6843F480736F
:104260002B60FEF797FE06462B68DA05D9D4FEF7D9
:1042700091FE801B0228F7D934E7052B04D12B6F60
:1042800043F004032B67D0E72A6F22F001022A676C
:104290002A6F22F004022A67002BCAD1FEF77AFEA9
:1042A00041F2883806462B6F9807CBD5FEF772FE91
:1042B000801B4045F7D915E7FEF76CFE401B4045D3
:1042C000BDD90FE7003802400000474200700040AF
:1042D000364DAB6803F00C03082B3DD0344B002265
:1042E00002281A662BD1FEF755FE06462B68990167
:1042F0001FD4D4E907321343626A43EA8213E26AA5
:1043000043EA0263A26A5208013A43EA02436B603D
:10431000274B264D01221A66FEF73CFE04462B6809
:104320009A013FF5B1AEFEF735FE001B0228F6D923
:10433000D8E6FEF72FFE801B0228D7D9D2E6FEF77B
:1043400029FE04462B689B017FF59EAEFEF722FEF8
:10435000001B0228F6D9C5E601283FF4C4AE6B68FD
:10436000E26903F4800191427FF4A5AE216A03F073
:104370003F028A427FF49FAE616A47F6C0721A40DC
:10438000B2EB811F7FF497AEA26A520803F440316A
:10439000013AB1EB024F7FF48EAEE26A03F0706334
:1043A000B3EB026F3FF470AE85E600BF0038024009
:1043B00000004742134908B58B6803F00C03042B37
:1043C0001CD0082B1CD14A684B68496813F4800341
:1043D00014BF0D480D48C1F3881118BF002302F027
:1043E0003F02A1FB0001FBF753FF064B5B68C3F3E1
:1043F000014301335B00B0FBF3F008BD0248FCE76A
:104400000248FAE70038024000127A000024F40063
:104410002DE9F0410D46044610B90120BDE8F081B8
:10442000434B1A6802F00F028A4228D321688F0793
:104430002DD4C80740D43E4B1A6802F00F02AA429E
:1044400065D8226851076BD4130707D5394A21690B
:10445000936823F4604343EAC1039360FFF7AAFF24
:10446000344B354A9B68C3F30313D35CD840334BBA
:104470001860334B1868FDF74BFC0020CEE7CAB23A
:104480001A701B6803F00F038B42C6D1CEE7294B8D
:1044900011F0040F1EBF9A6842F4E0529A600E07B2
:1044A00042BF9A6842F460429A609A68A06822F01B
:1044B000F00202439A60BCE762681E4B012A1CD1DD
:1044C0001B6813F4003FA8D01A4EB36823F003030F
:1044D0001343B360FEF75EFD41F288380746B368C8
:1044E000626803F00C03B3EB820FA4D0FEF752FD19
:1044F000C01B4045F3D9032090E7911E01291B689A
:1045000002D813F0007FDEE713F0020FDBE7EAB218
:104510001A701B6803F00F03AB427FF47EAF90E785
:104520000449E0688B6823F4E05303438B608BE716
:10453000003C0240003802400CBB0108740000201F
:104540007C000020044B054A9B68C3F38223D35CA4
:10455000034A1068D8407047003802401CBB01086D
:10456000740000200F2303600B4B9A6802F00302D3
:1045700042609A6802F0F00282609A6802F4E052A7
:10458000C2609B68DB0803F4E0530361034B1B68C4
:1045900003F00F030B60704700380240003C0240FC
:1045A000036813F0430FF7B5044640F08D8023688D
:1045B00013F00C0F45D08B4B8B4D00221A67FEF782
:1045C000E9FC06462B689F0000F1D08021684E0769
:1045D00015D5D4E90403D5F888201B0602F0E04283
:1045E00043EA80131343C5F88830D5F88C30226A2B
:1045F00023F4F853013A43EA0223C5F88C300D073F
:1046000014D5794AA369D2F8881020691B0701F0F4
:10461000706143EA80130B43C2F88830D2F88C30C3
:10462000616A23F440330B43C2F88C306D4B6E4EFD
:1046300001221A67FEF7AEFC05463368980040F188
:104640009C8023689B0634D500230193664B674DFD
:104650001A6C42F080521A641B6C03F08053019371
:10466000019B2B6843F480732B60FEF793FC064696
:104670002B68D90540F188805B4DA26A2B6F13F43B
:10468000407340F08880A36A03F44072B2F5407F23
:10469000554A40F0A380916823F0704021F4F8114E
:1046A00020F4407001439160116FC3F30B030B437F
:1046B0001367206810F010001FBF4D4B94F82C209A
:1046C000C3F8E02100204FE0464B474E00229A6697
:1046D000FEF760FC054633681F013FD42168CD0713
:1046E00041BFD4E901231B0743EA8213C6F8843093
:1046F000880715D53C4AE368D2F8840065681B0634
:1047000000F0E04043EA85130343C2F88430D2F856
:104710008C00E36920F01F00013B0343C2F88C309A
:1047200049060AD5E36862681B0643EA8213A26859
:1047300043EA02732C4AC2F884302A4B2A4E0122E3
:104740009A66FEF727FC054633681A013FF52FAF3E
:10475000FEF720FC401B0228F6D904E0FEF71AFC05
:10476000401B0228B7D9032003B0F0BDFEF712FCAE
:10477000801B02287FF626AFF5E7FEF70BFC401BF7
:1047800002287FF65AAFEEE7FEF704FC801B0228F2
:104790007FF66EAFE7E702F4407293423FF473AFE7
:1047A0002B6F104A0121C2F8401E23F440730021F0
:1047B000C2F8401E2B672B6FDA077FF564AFFEF758
:1047C000E9FB41F2883706462B6F9B073FF55BAF4D
:1047D000FEF7E0FB801BB842F6D9C4E7916821F4EC
:1047E000F81160E7000047420038024000700040C6
:1047F0000010474238B50D460446C8B190F82C3039
:1048000003F0FF021BB980F82D20FDF715FA0223F3
:1048100084F82C30211D206800F0F8FC62682068C4
:10482000294600F02BFD012384F82C30002038BDF0
:104830000120FCE770B590F82C30022B05460E469F
:10484000D8B212D000F0FB04012C0FD1022385F85E
:104850002C30286800F048FD3368022B06BF052382
:1048600085F82C3085F82C40002070BD0120FCE735
:1048700038B590F82C30022B0446D8B20DD094F8FD
:104880002C30012BDDB209D10223206884F82C30B2
:1048900000F050FD84F82C50002038BD0120FCE7CA
:1048A0002DE9F3411C4616460F460546FEF772FBFE
:1048B0003444241AFEF76EFB234B1B68C3F3CB333F
:1048C000804663432A680193936837EA030301D063
:1048D00000202EE0731CF7D0FEF75CFBA0EB080075
:1048E000A04229D32B685A6822F0E0025A606A6815
:1048F000B2F5827F0AD1AA68B2F5004F02D0B2F5B4
:10490000806F03D11A6822F040021A60AA6AB2F5D9
:10491000005F07D11A6822F400521A601A6842F444
:1049200000521A60012385F85130002385F8503079
:10493000032002B0BDE8F081019B002B019B08BF62
:104940000024013BBEE700BF7400002038B51346C9
:104950004268B2F5827F04461FD18268B2F5004FEB
:1049600002D0B2F5806F07D125682868B2F5806F54
:1049700020F04000286007D00A4680212046FFF73B
:104980008FFF20B9002038BD0A460121F6E7636D8C
:1049900043F0200363650320F5E70A460121EEE7B3
:1049A00037B51346124A1568124AB5FBF2F54FF4B3
:1049B0007A72554342680195B2F5827F04460BD165
:1049C0000A468021FFF76CFF78B1636D43F0200346
:1049D0006365032003B030BD019B33B1019B013BF4
:1049E000019323689B681B06F6D40020F2E700BF02
:1049F0007400002000366E0110B50446002855D022
:104A0000436A002B4ED14268B2F5827F00D0C36169
:104A10000023A36294F8513003F0FF0223B984F815
:104A200050202046FDF7D2F82168A068A269022331
:104A300084F851300B6823F040030B60636800F486
:104A4000044003F482730343E06800F4006003430E
:104A5000206900F002000343606900F00100034395
:104A600002F400700343E06900F038000343206A59
:104A700000F080000343A06A00F4005003430B6081
:104A8000636A120C03F0100302F004021A434A6036
:104A9000CB6923F40063CB6100200123606584F8B7
:104AA000513010BD0023C0E90433B1E70120F8E71D
:104AB0002DE9F7431F4690F85030012B04460D4670
:104AC000904600F0A080012380F85030FEF762FA93
:104AD00094F85130012B8146D8B240F09280002DDD
:104AE00061D0B8F1000F5ED0032384F85130002369
:104AF0006365C4E91033A4F83680A363A387E38712
:104B0000A36826682563B3F5004FA4F8348007D165
:104B1000336823F040033360336843F480433360E9
:104B20003368E2685B065EBF336843F0400333607E
:104B3000B2F5006F63683FD113B1B8F1010F07D12F
:104B400035F8023BF3602563E38E013B9BB2E386BD
:104B5000E38E9BB2A3B94A4639462046FFF720FFB1
:104B600000284BD1A36833B901932368DA68019216
:104B70009B680193019B606D003818BF012012E013
:104B800022689368980705D5236B33F8021BD16020
:104B90002363D9E7FEF7FEF9A0EB0900B842D7D3AB
:104BA000791CD5D00320012384F85130002384F8E8
:104BB000503003B0BDE8F08313B1B8F1010F08D154
:104BC0002B783373236B01332363E38E013B9BB25A
:104BD000E386E38E9BB2002BBDD023689A689207D0
:104BE00003D5226B12781A73ECE7FEF7D3F9A0EB2A
:104BF0000900B842EDD37B1CEBD0D3E720236365DB
:104C0000B0E70220CFE70220D3E72DE9F7431E46A5
:104C100090F85030DDF82880012B04460D4691466F
:104C200000F0E080012380F85030FEF7B3F994F8EB
:104C300051306268012B0746D9B20AD0B2F5827FA3
:104C400040F0CE80A368002B40F0CA80042940F0D9
:104C5000C780002D3FD0B9F1000F3CD0002E3AD0D4
:104C600094F85130C4F83890042B1CBF052384F805
:104C7000513000236365C4E910332368E687E68674
:104C80001968A687490658BF1968256358BF41F0BF
:104C90004001A68658BF1960E168B1F5006F51D197
:104CA0000AB1012E07D135F8022BDA60E38E2563B5
:104CB000013B9BB2E3860125E38E9BB26BB9E38F88
:104CC0009BB253B93A4641462046FFF769FE002899
:104CD0007BD02023636501202BE021688B689A0735
:104CE0000DD5E38E9BB253B14DB1236B33F8022B3C
:104CF000CA602363E38E013B9BB2E38600258A688A
:104D000012F001020CD0E38F9BB24BB1A36BC968C8
:104D100023F8021BA363E38F013B9BB2E387154695
:104D2000FEF738F9C01B4045C6D3B8F1FF3FC3D0EA
:104D30000320012384F85130002384F8503003B05D
:104D4000BDE8F0830AB1012E08D12A781A73236BCB
:104D500001332363E38E013B9BB2E3860125E38E9F
:104D60009BB21BB9E38F9BB2002BABD02268936838
:104D70009B070ED5E38E9BB25BB155B1236B1B78BD
:104D80001373236B01332363E38E013B9BB2E386F2
:104D900000252268916811F001010DD0E38F9BB2CC
:104DA00053B1A36BD2681A70A36B0133A363E38F73
:104DB000013B9BB2E3870D46FEF7ECF8C01B404574
:104DC000CDD3B8F1FF3FCAD0B2E7A368002BB0D172
:104DD00023680190DA6801929B680193019BA8E720
:104DE0000220A6E70220AAE72DE9F7431D46436803
:104DF000B3F5827F0446894617460CD1836853B9C0
:104E0000042380F85130134600950A46FFF7FDFE53
:104E100003B0BDE8F08394F85030012B7FD001231C
:104E200084F85030FEF7B6F894F85130012B8046E4
:104E3000D8B272D1B9F1000F5CD0002F5AD0A2685D
:104E4000C4F8389000260423B2F5004F84F851309E
:104E5000C4E9106666652368E787A7872663A68688
:104E6000E68607D11A6822F040021A601A6822F416
:104E700080421A601A6856065EBF1A6842F0400205
:104E80001A60E368F3B1E38F9BB2FBB123689A68C1
:104E9000D20736D5DA68A36B23F8022BA363E38F1E
:104EA000013B9BB2E387EEE723689A68D00718D5E9
:104EB000A26B1B7B1370A36B0133A363E38F013BD6
:104EC0009BB2E387E38F9BB2002BEDD1424629468C
:104ED0002046FFF73BFDE8B9606D003818BF0120A0
:104EE00008E0FEF757F8A0EB0800A842EAD3691CD7
:104EF000E8D00320012384F85130002384F8503097
:104F000086E7FEF747F8A0EB0800A842BBD36B1C6E
:104F1000B9D0EEE720236365DEE70220EAE702204E
:104F200076E7704790F83D30012B30D1022380F8AE
:104F30003D300368DA6842F00102DA60154A9342B4
:104F40001AD0B3F1804F17D0A2F57C42934213D010
:104F500002F5806293420FD002F5806293420BD03B
:104F600002F57842934207D002F57052934203D083
:104F7000A2F59432934204D19A6802F00702062AFD
:104F800003D01A6842F001021A6000207047012025
:104F9000704700BF0000014070477047704770477E
:104FA00003681A69910710B504460ED5DA689207AE
:104FB0000BD56FF002021A61012202779B699B07F1
:104FC00077D0FFF7EAFF0023237723681A69500799
:104FD00010D5DA6851070DD56FF004021A6102226C
:104FE00022779B6913F4407F204668D0FFF7D5FFF6
:104FF0000023237723681A6912070FD5DA68100790
:105000000CD56FF008021A6104222277DB69990738
:1050100020465AD0FFF7C1FF0023237723681A697F
:10502000D20610D5DA68D0060DD56FF010021A61DD
:1050300008222277DB6913F4407F20464BD0FFF72C
:10504000ACFF0023237723681A69D10708D5DA68F3
:10505000D20705D56FF001021A612046FCF718FC53
:1050600023681A69100608D5DA68110605D56FF0AD
:1050700080021A61204600F0C8F823681A695206B7
:1050800008D5DA68500605D56FF040021A6120464F
:10509000FFF785FF23681A69910622D5DA68920620
:1050A0001FD56FF0200220461A61BDE8104000F0C5
:1050B000ABB8FFF771FF2046FFF770FF83E7FFF7FC
:1050C0006BFF2046FFF76AFF92E7FFF765FF204678
:1050D000FFF764FFA0E7FFF75FFF2046FFF75EFFE3
:1050E000AFE710BD304A0368904212D0B0F1804F54
:1050F0000FD0A2F57C4290420BD002F58062904224
:1051000007D002F58062904203D002F578429042C7
:1051100019D14A6823F070031343234A904229D0DF
:10512000B0F1804F26D0A2F57C42904222D002F509
:10513000806290421ED002F5806290421AD002F541
:105140007842904216D0194A904213D002F58062FC
:1051500090420FD002F5806290420BD0A2F59832B7
:10516000904207D002F58062904203D002F580623F
:10517000904203D1CA6823F4407313434A6923F071
:105180008003134303608B68C3620B688362064B22
:10519000984203D003F58063984201D10B69036301
:1051A00001234361704700BF0000014000400140FF
:1051B00010B5044630B390F83D3003F0FF021BB940
:1051C00080F83C20FFF7ADFE0223206884F83D30D4
:1051D000211DFFF787FF012384F84630002084F863
:1051E0003E3084F83F3084F8403084F8413084F811
:1051F000423084F8433084F8443084F8453084F8F1
:105200003D3010BD0120FCE7704770472DE9F041AB
:10521000D1E90738D1E9012CD1E90376D1E9055468
:10522000D1F824E0096843EA080391B943EA0E0380
:10523000134343EA0C0301683B4333432B4321F4FC
:10524000FF41234321F07F010B4303600020BDE8B1
:10525000F081016843EA0E0321F4F8410B43036037
:1052600042EA0C0341683B4333432B4321F4FF42A2
:10527000234322F07F0213434360E7E7CB6803F147
:10528000FF3C4B69F0B50F684C688E680D69896901
:10529000013B1B05013C013E013D0139013F240159
:1052A00036022D04090643EA0C335AB93B43234323
:1052B000826833432B430B4302F0704213438360F5
:1052C0000020F0BD826822F4700222F470421A437A
:1052D000826044EA0603C2683B432B430B4302F05F
:1052E00070421343C360EBE770B50446154602698C
:1052F000D1E900300343C868920D43EA4023920588
:1053000013438A68013A43EA42132361FDF742FEE0
:105310000646A36913F0200301D1184603E06B1C75
:10532000F7D00DB9032070BDFDF734FE801BA842F5
:10533000EFD9F7E7436923F47F5323F03E0343EAB1
:10534000410141610020704708B54FF0E0231B691F
:1053500001F010FE012803D0BDE8084000F0E2BBD8
:1053600008BD0000EFF305832BB9064B186828B978
:1053700001221A6070476FF0050070474FF0FF3050
:10538000704700BF3C19002010B5EFF305845CB9ED
:10539000084B1A68012A0AD1074AD47702221A60F8
:1053A00001F062FB204610BD6FF00500FBE74FF0F7
:1053B000FF30F8E73C19002000ED00E0F0B587B0C1
:1053C0000B4600210591EFF30584CCB9C0B16AB357
:1053D00095698D4208BF1825691E3729AC462AD821
:1053E0005168C90727D456696EB1B408D2E9027E64
:1053F000116857B1BEF15F0F02D9126902B1E6B967
:10540000059807B0F0BD8024F0E7BEF1000FF7D19A
:105410001269002AF4D105AACDE900C2A2B201F0B6
:10542000F6FA01281CBF00230593E9E711464FF067
:10543000180C8024EFE72046E3E7CDE9012700952B
:10544000224601F0ACFA0590DAE710B5EFF30584D7
:1054500024B910B101F066FC204610BD6FF00500C4
:10546000FBE7F7B504460E461546EFF305821AB181
:105470000024204603B0F0BD0028F9D08842F7D3BD
:10548000E5B1D5E90237BBB14F2FF1D901282AD1B7
:1054900003210091114600F0EEFC04460028E7D0FD
:1054A000DEB100231A46194600F09AFD012814D0F7
:1054B000204601F0D5F8DBE7002FD9D1012C05D12A
:1054C00003220021204600F024FDE6E72046314675
:1054D00000F068FD04460028CAD055B92946204688
:1054E00001F098F8C5E71A4600F03AFD0446002896
:1054F000BED02D68F2E713B50C4608B3EFF3058371
:10550000B3B1E9B901AA019101F035F8012814D12C
:10551000019B13B9002002B010BD4FF0E0234FF003
:105520008052C3F8042DBFF34F8FBFF36F8FF1E7A5
:1055300000F05EFF0128EDD02CB96FF00200EAE721
:105540006FF00300E7E76FF00100E4E713B510B375
:10555000EFF30583B3B1002401A9019400F055FED7
:10556000012815D1019B13B9002002B010BD4FF0E6
:10557000E0234FF08052C3F8042DBFF34F8FBFF3E9
:105580006F8FF1E71A46194600F02AFD0128EBD08B
:105590006FF00200E9E76FF00300E6E7F7B50546B4
:1055A0000E461446EFF305871FB10025284603B0C9
:1055B000F0BD0028F9D00029F7D0DAB1D2E90232E3
:1055C00083B14F2AF1D92269002AEED066694D4392
:1055D000AE42EAD3009700F04EFC05460028E4D026
:1055E000246811E0002AE0D12369002BDDD1636932
:1055F000002BDAD128460022314600F08AFC05460D
:105600000028D2D0002CEBD12146284601F002F828
:10561000CCE773B51C46EFF30586C6B118B311B3DA
:105620000BBB01AA019300F08EFD012818D1019B4C
:1056300013B9002002B070BD4FF0E0234FF080524C
:10564000C3F8042DBFF34F8FBFF36F8FF1E750B155
:1056500049B13346224600F0C3FC0128E9D02CB9F9
:105660006FF00200E6E76FF00300E3E76FF0010080
:10567000E0E737B51C46EFF30583C3B110B309B3B8
:1056800004BB01AA019400F076FF012817D1019B09
:1056900013B9002003B030BD4FF0E0234FF080522B
:1056A000C3F8042DBFF34F8FBFF36F8FF1E748B1FD
:1056B00041B1224600F0FDFD0128EAD02CB96FF07F
:1056C0000200E7E76FF00300E4E76FF00100E1E7B5
:1056D000034B0360034B0B6080231360704700BFD4
:1056E000DC180020DC160020034B0360034B0B602A
:1056F0004FF4807313607047401D00204019002054
:1057000010B5104B1A461B688342FBD3546811191D
:10571000884201BF41681046091951604468011967
:105720008B420CD1084909688B4203D05968214447
:10573000416019680160904218BF106010BD1946A1
:10574000F8E700BFB81D0120A01D00202DE9F041A1
:10575000044601F0CFF94249424D0B680BBB424A67
:1057600056071FBFD01D20F0070002F58032131A24
:105770000CBF4FF48033024613443C4E083B23F0E9
:105780000703002070603260C3E90000981AC2E984
:1057900000300B60364B1860364B18604FF00043FA
:1057A0002B602E68264255D1002C46D004F1080308
:1057B00060071CBF23F007030833002B4AD02D4F8E
:1057C0003C689C4246D3294A15686868984204D2CE
:1057D000D5F800C0BCF1000F15D10968A94239D035
:1057E0002968D2F800801160C21A102A12D9E8186C
:1057F00041070BD04FF0500383F31188BFF36F8F35
:10580000BFF34F8FFEE72A466546DEE742606B60D6
:10581000FFF776FF6A681649A41A1643164A086805
:105820003C6000232B6013686E60844203F1010327
:1058300038BF0C60136008F1080401F0FFF963073A
:105840000AD04FF0500383F31188BFF36F8FBFF37B
:105850004F8FFEE70024F0E72046BDE8F08100BF4F
:10586000A01D0020A41D0120A41D0020B81D0120A2
:10587000AC1D0120A81D0120B01D012010B504465B
:1058800090B31A4A50F8043C1268134208D14FF002
:10589000500383F31188BFF36F8FBFF34F8FFEE781
:1058A00050F8081C41B14FF0500383F31188BFF347
:1058B0006F8FBFF34F8FFEE723EA020340F8043CEB
:1058C00001F018F90A4A54F8043C1168A4F10800E0
:1058D0000B441360FFF714FF064A1368BDE810403D
:1058E0000133136001F0AAB910BD00BFA41D01204F
:1058F000A81D0120B41D012000F108034FF0FF3264
:10590000C0E9022343600361002303607047002362
:105910000361704743684B609A688A609A68516077
:1059200099600368086101330360704730B50C6803
:10593000631C0AD103695A684A6091608B605960A0
:10594000036808610133036030BD00F108021346AB
:1059500052681568A542FAD9EDE7D0E9011203694A
:105960008A6051605968814208BF5A600022026112
:105970001A68013A1A601868704700000848006801
:10598000006880F308884FF0000080F3148862B646
:1059900061B6BFF34F8FBFF36F8F00DF00BF000012
:1059A00008ED00E0DFF80C00016841F470010160CF
:1059B0007047000088ED00E082B0002301930D4B9A
:1059C0001B68013308D04FF0500383F31188BFF3F5
:1059D0006F8FBFF34F8FFEE74FF0500383F31188B3
:1059E000BFF36F8FBFF34F8F019B002BFCD002B032
:1059F000704700BF800000204FF0807340F8043CE7
:105A0000074B40F80C3C21F001016FF0020340F815
:105A1000081C40F8202C40F8243C4438704700BF54
:105A2000B95900080000000000000000000000005C
:105A3000074B19680868B0E8F04F80F30988BFF396
:105A40006F8F4FF0000080F311887047AFF3008034
:105A5000081E01204FF0500383F31188BFF36F8FAE
:105A6000BFF34F8F0A4A13680133012B13600ED125
:105A70004FF0E023D3F8043DDBB243B14FF05003C5
:105A800083F31188BFF36F8FBFF34F8FFEE770472B
:105A900080000020084A136843B94FF0500383F395
:105AA0001188BFF36F8FBFF34F8FFEE7013B136089
:105AB0000BB983F3118870478000002000000000BC
:105AC000EFF30980BFF36F8F154B1A681EF0100FAC
:105AD00008BF20ED108A20E9F04F10602DE9090081
